:020000040800F2
:10000000980E0020110C0008390300083B0300087B
:100010003F030008430300084703000800000000F6
:100020000000000000000000000000004B0300087A
:100030004D030008000000004F03000851030008B2
:100040002B0C00082B0C00082B0C00082B0C0008B4
:100050002B0C00082B0C00082B0C00082B0C0008A4
:1000600017060008630600082B0C00082B0C00087C
:100070002B0C00082B0C00082B0C00082B0C000884
:100080002B0C00082B0C00082B0C00082B0C000874
:100090000D3000082B0C00082B0C0008AF060008E0
:1000A0002B0C00082B0C00082B0C00082B0C000854
:1000B0002B0C00082B0C00082B0C00082B0C000844
:1000C0002B0C00082B0C00082B0C00082B0C000834
:1000D0002B0C0008850B00082B0C00082B0C0008CB
:1000E0002B0C00082B0C0008013000082B0C00081A
:1000F0002B0C00082B0C00082B0C00082B0C000804
:100100002B0C00082B0C00082B0C00082B0C0008F3
:100110002B0C00082B0C00082B0C00082B0C0008E3
:100120002B0C00082B0C00082B0C00082B0C0008D3
:1001300000F002F800F0B0F80AA090E8000C824449
:100140008344AAF10107DA4501D100F0A5F8AFF226
:10015000090EBAE80F0013F0010F18BFFB1A43F0A5
:1001600001031847E0500000005100000A444FF01E
:10017000000C10F8013B13F0070408BF10F8014B06
:100180001D1108BF10F8015B641E05D010F8016B4B
:10019000641E01F8016BF9D113F0080F1EBF10F8AF
:1001A000014BAD1C0C1B09D16D1E58BF01F801CBD2
:1001B000FAD505E014F8016B01F8016B6D1EF9D555
:1001C0009142D6D37047000000230024002500266A
:1001D000103A28BF78C1FBD8520728BF30C148BFAA
:1001E0000B6070476E2903F02A86702903F084871C
:1001F000662904F06187652904F05E87672904F0A9
:100200005B876129AFF3008003681B0A28BF41F0B8
:100210008001692903F02E84642903F02B84752959
:1002200003F028846F2903F00F87782903F05087A3
:10023000E92903F0A786E42903F0A486F52903F051
:10024000A186EF2903F00C87F82903F04F87036894
:10025000DB0928BF41F08001632904F0B8817329CC
:1002600004F0BD81E32904F0C881F32904F0CD81B5
:10027000002070471FB504F01DFA04000020002183
:1002800004F004FF401C60600020002104F0E8FE40
:10029000E0601FBD10B510BD04F0DFF91146FFF797
:1002A000E9FF00F009F804F0BBFA03B4FFF7F2FF2E
:1002B00003BC00F00DFC0000012400BF00BF00F0F3
:1002C0009FFB4FF4A06000F0C3FC4FF4E13000F05E
:1002D0000DFC00F0E5FA00F05BFA00F02BF900F0FD
:1002E00057FB24E012480078012808D104F00100EF
:1002F00044EA00304410204600F0FBFA0BE00C48C2
:100300000078022807D1C4F3C02040EA440084B238
:10031000204600F0EEFA002505E04FF4FA7000F0F8
:10032000ABFB681CC5B2034800788542F5DBD9E712
:100330001400002015000020704700BFFEE700BF3A
:10034000FEE700BFFEE700BFFEE77047704770475B
:10035000704700000CB50020019000906B480068C9
:1003600040F480306949086000BF6848006800F4C4
:10037000003000900198401C0190009818B9019835
:10038000B0F5A06FF1D16148006810F4003F02D0D1
:100390000120009001E0002000900098012842D147
:1003A0005B48006840F01000594908600846006842
:1003B00020F0030008600846006840F00100086073
:1003C00052484068514948600846406848600846BD
:1003D000406840F4806048600846406820F47C1023
:1003E00048600846406840F4A0204860084600681D
:1003F00040F08070086000BF4448006810F0007F43
:10040000FAD04248406820F003004049486008465E
:10041000406840F00200486000BF3C48406800F07F
:100420000C000828F9D10CBD10B5FFF793FF10BDE3
:1004300010B53648006840F00100344908600846AD
:1004400040683449084031494860084600683249EC
:1004500008402E4908600846006820F480200860A3
:100460000846406820F4FE0048604FF41F00886092
:10047000FFF7DAFF4FF000602849086010BD10B5A3
:10048000002100200022214B5B6803F00C0121B108
:10049000042906D0082928D107E0214B214C2360EC
:1004A00027E0214B1F4C236023E0184B5B6803F4CB
:1004B0007010164B5B6803F48032022303EB90400C
:1004C00022B91A4B4343174C23600DE00F4B5B6876
:1004D00013F4003F04D0124B4343124C236003E05B
:1004E000114B43430F4C236003E00D4B0D4C236035
:1004F00000BF00BF054B5B68C3F303130C4CE15C0A
:10050000084B1B68CB40074C236010BD0010024015
:10051000002002400000FFF8FFFFF6FE08ED00E0BB
:1005200000127A00000000200024F40000093D00C1
:10053000040000200EB500F02BF90121084600F060
:100540000BFF0221084600F065FD04200190002009
:100550008DF8080008208DF8090001208DF80A00A8
:1005600001A801F075F90321022000F053FD0820D5
:10057000019001A801F06CF90821012000F04AFD6A
:100580004FF48070019001A801F062F90921012067
:1005900000F040FD4FF40070019001A801F058F9FF
:1005A00008208DF8000002208DF8010003208DF84E
:1005B000020001208DF80300684600F04EFB092080
:1005C0008DF8000002208DF801008DF80200012056
:1005D0008DF80300684600F040FB17208DF80000FE
:1005E00002208DF8010001208DF802008DF8030033
:1005F000684600F032FB17208DF8000002208DF8CD
:10060000010000208DF8020001208DF803006846EB
:1006100000F023FB0EBD10B50A2000F02DFA0421D6
:10062000574800F074FC012817D100BF042154483A
:1006300000F06DFC0028F9D1142000F01DFA00BF75
:1006400004214F4800F063FC0028F9D101204D49F6
:1006500008700846007800F0C9F9042001F06FF92D
:1006600010BD10B50A2000F007FA0821444800F038
:100670004EFC012817D100BF0821414800F047FC7B
:100680000028F9D1142000F0F7F900BF08213C48F8
:1006900000F03DFC0028F9D102203A4908700846D4
:1006A000007800F0A3F9082001F049F910BD10B559
:1006B0004FF4007001F032F950B30A2000F0DCF979
:1006C0004FF40071304800F022FC01281BD100BF1C
:1006D0004FF400712C4800F01AFC0028F8D11420C7
:1006E00000F0CAF900BF4FF40071274800F00FFC7A
:1006F0000028F8D125480078401C24490870084695
:10070000007800F073F94FF4007001F018F936E04A
:100710004FF4807001F002F988B30A2000F0ACF9C0
:100720004FF48071184800F0F2FB012823D100BF7C
:100730004FF48071144800F0EAFB0028F8D114202F
:1007400000F09AF900BF4FF400710F4800F0DFFB92
:100750000028F8D10D480078012805DD0B48007805
:10076000401E0A49087002E0012008490870074845
:10077000007800F03BF94FF4807001F0E0F810BD14
:100780000010014014000020000C01401500002062
:1007900008B50121182000F0DFFD4FF44070ADF8DE
:1007A000000028208DF8030003208DF80200694620
:1007B000384800F01BFB0C20ADF8000069463648B5
:1007C00000F014FB08BD10B5044614B101203349F4
:1007D000087032480078002840D04FF400712D484E
:1007E00000F095FB012812D04FF48071294800F0E9
:1007F0008EFB01280BD00421274800F088FB01283C
:1008000005D00821244800F082FB012826D10A20C7
:1008100000F032F90020214908704FF400711D48A2
:1008200000F075FB012800D110BD4FF4807119480C
:1008300000F06DFB012801D10220F5E704211648E4
:1008400000F065FB012801D10320EDE708211248E3
:1008500000F05DFB01281AD10420E5E74FF4007198
:100860000C4800F054FB90B94FF48071094800F037
:100870004EFB60B90421084800F049FB38B9082153
:10088000054800F044FB10B901200449087000201D
:10089000CAE70000000C01400010014016000020D3
:1008A00008B501213C2000F057FD3F20ADF80000C5
:1008B00010208DF8030003208DF8020069462948B6
:1008C00000F094FAE020ADF800006946264800F0F8
:1008D0008DFA4FF4C050ADF800006946234800F08F
:1008E00085FA0420ADF800006946214800F07EFA40
:1008F00008BD00F001011F4A1160C0F340011E4A0B
:10090000C2F89811C0F380011C4A1160C0F3C00105
:100910001B4A1160C0F300111A4A1160C0F3401164
:10092000A2F104021160C0F38011174A1160C0F3F4
:10093000C011A2F104021160C0F30021A2F104026F
:100940001160C0F34021A2F104021160C0F38021C4
:10095000A2F104021160C0F3C0210C4AC2F8801158
:100960007047000000080140000C014000100140E9
:10097000001401409C812142008021429481214247
:1009800088812242B001224294012142000021428A
:1009900010B5002002F093FB4FF42F7000F06CF8BC
:1009A000012002F08CFB02F035FB02F053FB01F05A
:1009B0004BFD4FF4487000F05FF810BD00210E4869
:1009C0000068C1B2052901D1002070470120FCE771
:1009D0000A48008810F4004F06D008480088C0F389
:1009E0000D010020054A1080C8B2704710B50446BA
:1009F000204602F019FC10BD5001002054000020D8
:100A000010B56FF0040000F073F92D4800682D490F
:100A1000B0FBF1F02C4908700846007800EB40016B
:100A2000C1EBC0104FF6FF7101EAC00027490880F2
:100A300010BD0146244A12784A434FF0E0235A6120
:100A400000229A611A46126942F001021A6100BF3F
:100A50004FF0E022106910F0010F02D010F4803F37
:100A6000F6D04FF0E022126922F001024FF0E023AD
:100A70001A6100229A6170470146144A12884A435B
:100A80004FF0E0235A6100229A611A46126942F03F
:100A900001021A6100BF4FF0E022106910F0010F4F
:100AA00002D010F4803FF6D04FF0E022126922F01D
:100AB00001024FF0E0231A6100229A6170470000A2
:100AC0000000002000127A00180000201A00002008
:100AD000014600BF704700BF494A128812F0400F1C
:100AE000FAD0C2B2464B1B1D1A80704710B586B0B3
:100AF0000446012144F2040000F02EFC4FF4007083
:100B0000ADF8140003208DF8160018208DF817009A
:100B100005A93C4800F06AF94FF48060ADF8140074
:100B200004208DF8170005A9364800F05FF925204C
:100B30008DF8000003208DF801008DF802000120DF
:100B40008DF80300684600F088F801940020ADF8A5
:100B50000800ADF80A00ADF80C00ADF810000C204C
:100B6000ADF80E0001A9264800F0A3FC012240F2D6
:100B70002551234800F035FD0121214800F025FDD5
:100B800006B010BD10B540F225511D4800F00EFE14
:100B900010B31B4800F08AFDC4B21B48008810F453
:100BA000004F2BD11848008810F4804F0CD00A2C2D
:100BB00003D000201449088020E01348008840F446
:100BC00000401149088019E00D2C06D10E4800881C
:100BD00040F480400C49088010E00B480088C0F3C6
:100BE0000D000A490C5408480088401C064908803A
:100BF00008460088C72801DD0020088010BD0000DD
:100C000000380140000801401C0000206001002065
:100C10000948804709480047FEE7FEE7FEE7FEE790
:100C2000FEE7FEE7FEE7FEE7FEE7FEE704480549CC
:100C3000054A064B704700003104000831010008E6
:100C400098080020980E0020980A0020980A00209A
:100C500031490143314A1160704770B500210023CA
:100C60000F22C4780CB32D4C246804F4E064C4F55E
:100C7000E064210AC1F10403CA40447804FA03F194
:100C80008478144021430901254C0678A155047845
:100C900004F01F050124AC4005786D114FF0E026EB
:100CA00006EB8505C5F8004109E0047804F01F054E
:100CB0000124AC401B4D0678761145F8264070BDE6
:100CC000194A0A400243154B1B1F1A60704739B17D
:100CD000124A121D12680243104B1B1D1A6006E0D7
:100CE0000E4A121D126882430C4B1B1D1A6070477E
:100CF000042808D14FF0E021096941F004014FF0C8
:100D0000E022116107E04FF0E021096921F00401C0
:100D10004FF0E022116170470000FA050CED00E091
:100D200000E400E080E100E080FFFF1F10B5044612
:100D3000CA48844208D10121042000F027FB002189
:100D4000042000F023FB46E0C548844208D101217D
:100D5000082000F01BFB0021082000F017FB3AE000
:100D6000C048844208D10121102000F00FFB00216F
:100D7000102000F00BFB2EE0BB48844208D101217B
:100D8000202000F003FB0021202000F0FFFA22E0E9
:100D9000B648844208D10121402000F0F7FA002132
:100DA000402000F0F3FA16E0B148844208D1012156
:100DB000802000F0EBFA0021802000F0E7FA0AE042
:100DC000AC48844207D10121801500F0DFFA0021F0
:100DD000A01500F0DBFA10BD10B50121084600F0A7
:100DE000D5FA0021012000F0D1FA10BD2DE9F04123
:100DF000024600250026002000230024002791F849
:100E000003C00CF00F0591F803C01CF0100F03D0C5
:100E100091F802C04CEA050591F800C0BCF1000F42
:100E200031D0146800202BE04FF0010C0CFA00F3D5
:100E3000B1F800C00CEA03069E4220D183004FF0B7
:100E40000F0C0CFA03F7BC4305FA03FC4CEA04044C
:100E500091F803C0BCF1280F06D14FF0010C0CFA39
:100E600000FCC2F814C00AE091F803C0BCF1480FBE
:100E700005D14FF0010C0CFA00FCC2F810C0401C68
:100E80000828D1D31460B1F800C0BCF1FF0F34DDE5
:100E9000546800202EE000F1080C4FF0010808FA19
:100EA0000CF3B1F800C00CEA03069E4221D1830086
:100EB0004FF00F0C0CFA03F7BC4305FA03FC4CEAA5
:100EC000040491F803C0BCF1280F05D100F1080C0F
:100ED00008FA0CF8C2F8148091F803C0BCF1480F6E
:100EE00007D100F1080C4FF0010808FA0CF8C2F81D
:100EF0001080401C0828CED35460BDE8F0814FF626
:100F0000FF710180022181700421C1707047024687
:100F1000002093680B4201D0012000E000207047C0
:100F20000146886880B2704702460020D3680B42B1
:100F300001D0012000E0002070470146C86880B25F
:100F4000704701617047416170470AB1016100E07B
:100F500041617047C16070474FF480320A4382613B
:100F60008161826182698269704702460020424B3A
:100F700018684FF68073184040EA021008433E4B51
:100F8000186070473D49C8617047F0B50A460023B4
:100F900000240021002500F00046B6F1004F02D1E8
:100FA000354EF16901E0344E7168C0F3034583B2F8
:100FB00000F44016B6F5401F08D121F070612E4EA6
:100FC000766826F070662C4F7E6012E000F4801682
:100FD000B6F5801F06D1032606FA05F4A14341F0B9
:100FE000706106E0460D360103FA06F6B14341F0A2
:100FF000706122B1460D360103FA06F6314300F066
:101000000046B6F1004F02D11B4EF16101E01A4ECD
:101010007160F0BD30B500228B071C0F0F2303FA5F
:1010200004F2154B08338C1053F824309343124CC0
:1010300008348D1044F8253023468C1053F82430A2
:101040008C07240F00FA04F423430B4C08348D1052
:1010500044F8253030BD0A49086070470008014057
:10106000000C014000100140001401400018014034
:10107000001C01400020014000000140000020420F
:10108000DC002042DD48006840F00100DB490860D8
:1010900008464068DA490840D84948600846006870
:1010A000D8490840D54908600846006820F48020E7
:1010B00008600846406820F4FE0048604FF41F00B6
:1010C00088607047CD49096821F48031CB4A1160AE
:1010D0001146096821F480211160B0F5803F03D0EA
:1010E000B0F5802F0ED106E0C449096841F4803183
:1010F000C24A116007E0C149096841F4A021BF4A12
:10110000116000E000BF00BF704710B5014600222B
:10111000002300204A11012A02D1B84C236806E0BE
:10112000022A02D1B54C236A01E0B44C636A01F093
:101130001F02012494401C4201D0012000E0002045
:1011400010BD38B5002000900024002500BF3120DC
:10115000FFF7DBFF05460098401C00900098B0F5B3
:10116000A06F01D0002DF2D03120FFF7CEFF08B1E3
:10117000012400E00024204638BD014600209F4A9B
:10118000106820F0F80040EAC100106070479E49E6
:101190000860704702460020984B586820F47C1085
:1011A00042EA01031843954B586070479649086618
:1011B000704701460020914A506820F00300084320
:1011C000506070478D48406800F00C007047014641
:1011D00000208A4A506820F0F000084350607047B1
:1011E00001460020854A506820F4E06008435060C2
:1011F000704701460020814A506820F4605040EA60
:10120000C1005060704729B17C4A527A02437B4B3F
:101210005A7204E0794A527A8243784B5A72704784
:101220007A490860704701460020744A506820F4EB
:1012300040400843506070470021754A11706F4A62
:1012400082F82010012802D0042808D103E00121EF
:101250006F4A117004E005216D4A117000E000BF73
:1012600000BF70476B49086070476449096A0143D1
:10127000624A11627047674944390860704730B567
:1012800000210022002400235C4D6D6805F00C0154
:1012900021B1042905D0082923D105E05E4D056060
:1012A00022E05E4D05601FE0544D6D6805F470123C
:1012B000524D6D6805F48034022505EB92421CB94D
:1012C000574D554305600BE04C4D6D6815F4003FDC
:1012D00003D0514D5543056002E0504D5543056024
:1012E00002E04D4D056000BF00BF444D6D6805F044
:1012F000F00109094B4D6B5C0568DD4045603F4DD1
:101300006D6805F4E061090A464D6B5C4568DD4097
:1013100085603A4D6D6805F46051C90A414D6B5CBA
:101320004568DD40C560354D6D6805F44041890B69
:101330003D4D6B5CC568B5FBF3F5056130BD29B16A
:101340002E4A526902432D4B5A6104E02B4A5269DE
:1013500082432A4B5A61704729B1284A9269024355
:10136000264B9A6104E0254A92698243234B9A6195
:10137000704729B1214AD2690243204BDA6104E067
:101380001E4AD26982431D4BDA61704729B11B4A5C
:10139000D2680243194BDA6004E0184AD2688243EB
:1013A000164BDA60704729B1144A12690243134B95
:1013B0001A6104E0114A12698243104B1A617047A6
:1013C00014494039086070470F49C86470470B4999
:1013D000C87170470948406A40F080700749486208
:1013E000704701460020054A92680A4201D0012058
:1013F00000E00020704701498872704700100240E9
:101400000000FFF8FFFFF6FE00004242D800424213
:10141000201002408004424200127A000024F400AE
:1014200000093D00240000203400002010B50446CF
:10143000FB48844209D101218803FFF7A7FF00215F
:101440004FF48040FFF7A2FF32E0F648844209D112
:1014500001214804FFF7A7FF00214FF40030FFF7F8
:10146000A2FF25E0F048844209D101218804FFF75A
:101470009AFF00214FF48020FFF795FF18E0EB481A
:10148000844209D10121C804FFF78DFF00214FF4E8
:101490000020FFF788FF0BE0E548844208D10121D6
:1014A0000805FFF780FF00214FF48010FFF77BFF56
:1014B00010BD2DE9F04786B005460E460024A24631
:1014C00000BFA1460027B08900B100BF2F462C8A7B
:1014D0004CF6FF700440F08804432C82AC894EF631
:1014E000F3100440B08831890843718908430443EC
:1014F000AC81AC8A4FF6FF400440B0890443AC8213
:1015000001A8FFF7BCFEC648874202D1DDF810A053
:1015100001E0DDF80CA0A88910F4004F08D00AEB18
:10152000CA0000EB0A1031684900B0FBF1F807E08F
:101530000AEBCA0000EB0A1031688900B0FBF1F831
:101540006420B8FBF0F004012009642101FB10893C
:10155000A88910F4004F08D0322000EBC900B0FB7E
:10156000F1F000F00700044308E0322000EB09101E
:101570006421B0FBF1F000F00F0004432C8106B0B1
:10158000BDE8F0874FF41651016000218180C180D1
:1015900001810C21418100218181704710B50246F3
:1015A0000020108A4FF2FF0318400B884C88234319
:1015B0008C882343CC8823431843108210BD00211C
:1015C000018041808180C180704721B1828942F4CD
:1015D0000052828104E082894DF6FF731A408281B5
:1015E0007047F0B503460024002600250020A1F531
:1015F00010676A3F00D100BF1846C1F3421401F0E2
:101600001F06012707FA06F5012C01D10C3004E072
:10161000022C01D1103000E014301AB107682F43BA
:10162000076002E00768AF430760F0BD1AB1838A24
:101630000B43838202E0838A8B4383827047028A52
:101640004FF6F0731A400282028A0A430282704700
:1016500082894FF2FF731A40828182890A43828114
:10166000704721B1828942F00202828104E08289BE
:101670004FF6FD731A4082817047028A4FF6DF737E
:101680001A400282028A0A430282704721B1028A0A
:1016900042F48042028204E0028A4BF6FF731A4051
:1016A00002827047C1F30802828070470146888831
:1016B000C0F308007047818941F0010181817047C2
:1016C000028BD2B20283028B42EA0122028370476C
:1016D000028B02F47F420283028B0A43028370472B
:1016E00021B1828A42F02002828204E0828A4FF68F
:1016F000DF731A408282704721B1828A42F0100261
:10170000828204E0828A4FF6EF731A408282704729
:1017100021B1828A42F00802828204E0828A4FF676
:10172000F7731A408282704721B1828942F40042E5
:10173000828103E08289C2F30E028281704721B167
:10174000828A42F40062828204E0828A4FF2FF734E
:101750001A4082827047828A4FF6FB731A40828257
:10176000828A0A438282704721B1828A42F0020251
:10177000828204E0828A4FF6FD731A4082827047AB
:1017800002460020B1F5007F00D100BF13880B4254
:1017900001D0012000E00020704701F40072B2F592
:1017A000007F00D100BFCA430280704770B5024677
:1017B0000024002300250020A1F510666A3E00D118
:1017C00000BFC1F3421501F01F03012606FA03F31F
:1017D000012D02D19689334006E0022D02D1168AEE
:1017E000334001E0968A33400C12012606FA04F4D5
:1017F0001688344013B10CB1012000E0002070BD08
:1018000010B500220023A1F510646A3C00D100BF8E
:101810000A1201249440A3B2DC43048010BD0000EE
:10182000003801400044004000480040004C0040A7
:1018300000500040002044490860091D0860091D4F
:101840000860091D086041483F491431086070472D
:1018500000213D498279002A3AD00A46126803687D
:101860009A430B461A600A1D126803689A430B1DBF
:101870001A60027911440A6803681A430A60324AFE
:101880000832126803689A432F4B08331A601A1DF6
:10189000126803689A432C4B0C331A604279102A61
:1018A0000ED11A1F126803681A43274B08331A60B7
:1018B0001A1D126803681A43234B0C331A600DE09B
:1018C0002149427911440A6803681A430A6005E015
:1018D000027911440A6803689A430A60704700213C
:1018E000016001710C21417100218171704716491D
:1018F000103109680143144A1032116070470146E3
:101900000020114A143212680A4201D0012000E07E
:10191000002070470C4914310860704701460020D0
:101920000022094B1B6803EA0102074B14331B68B2
:101930000B4202D00AB1012000E0002070470249AA
:10194000143108607047000000040140FFFF0F00E1
:1019500010B504462CB90120FE4909680882002010
:1019600010BDFD49096808688047FA4800680A30D8
:10197000F6E710B5F7480068C078F849497888421A
:1019800013DCF4480068807878B9F24800688088F1
:1019900058B9F0480068C078EE4909688872EE4985
:1019A000096848688047002010BD0220FCE710B598
:1019B00004462CB90120E74909680882002010BDBF
:1019C000E549096888688047E24800680C30F6E716
:1019D00010B5E04B1B68D978DE4B1B685879E04B9B
:1019E0001B689A6990470446DA480068807AE8B133
:1019F0003CB9D8480068007918B9D64800688078A2
:101A000008B1022010BD8CB9D3490968C868804765
:101A1000D04800684079CF490968C872CD4800684D
:101A2000C078CC49096808730020EBE70220E9E799
:101A300010B504462CB90220C64909680882002066
:101A400010BD0020C7490880C2480068007810F027
:101A50007F0F23D1BF490968487A10F0200F06D0C4
:101A6000C049097841F00201BE4A117005E0BD4944
:101A7000097801F0FD01BB4A117010F0400F06D04B
:101A8000B849097841F00101B64A117005E0B5493D
:101A9000097801F0FE01B34A117036E0AD480068E4
:101AA000007800F07F00012801D1AE48C8E7A948BE
:101AB0000068007800F07F00022824D1A54A12684F
:101AC000517901F00F0011F0800F0DD0A64A52F8A5
:101AD000202002F03002102A14D1A24A127842F0DB
:101AE0000102A04B1A700DE09F4A52F8202002F428
:101AF0004052B2F5805F05D19A4A127842F0010255
:101B0000984B1A7001E000209AE793490968086928
:101B10008047944894E72DE9F0478E4800680078A4
:101B200000F07F08B8F1000F0AD18A480068407AB7
:101B300000F0DF008749096848720020BDE8F0879F
:101B4000B8F1020F7ED183480068408818B98148F7
:101B50000068007908B10220F0E7DFF800927D48C4
:101B60000068477927F080052C467A48006840795C
:101B700010F0800F05D07C4850F8240000F03006AB
:101B800004E0794850F8240000F4405699F8000029
:101B9000A84204D91EB16F480068807A08B90220B3
:101BA000CCE717F0800F0ED06F4850F8240000F0FB
:101BB000300010283FD1E0B200F0B3FFE0B2302196
:101BC00000F05BFE37E0684850F8240000F4405015
:101BD000B0F5805F2FD1C4B9644A92F82C10E0B2FE
:101BE00001F026F8604951F824104BF68F7201EA93
:101BF000020080F4805080F4005040F4004141F035
:101C00008001594A42F8241015E0E0B200F073FF59
:101C1000554951F824104BF68F7201EA020080F406
:101C2000805080F4005040F4004141F080014E4A61
:101C300042F8241000BF48490968486980470020DD
:101C40007CE7FFE700BF022078E72DE9F04141483B
:101C50000068467926F080073C463E480068407997
:101C600010F0800F05D0404850F8240000F03005F7
:101C700004E03D4850F8240000F44055374800780F
:101C8000A04208D933480068408820B91DB13148C6
:101C90000068807A10B90220BDE8F08116F0800F4C
:101CA00010D0314951F8241048F6BF7201EA020001
:101CB00080F0100040F4004141F080012A4A42F8CF
:101CC000241010E0284951F824104BF68F7201EAD5
:101CD000020080F4805040F4004141F08001224A2B
:101CE00042F8241000BF1C49096888698047002019
:101CF000D2E710B517480068407A40F02000154937
:101D00000968487214490968C8698047002010BDF5
:101D100010B502460F480068438A32B98888C01A55
:101D20000C4C24682082002010BD08681844FBE792
:101D30002DE9F0410748006800F110042688A068EA
:101D400038B336B3A588B54200D93546A8B2A168E4
:101D500088470DE0400000204C000020C800002013
:101D6000440000203A000020005C0040CC0000202D
:101D700007462088401B208060882844608000201F
:101D800000F028FF8046AAB24146384600F016FD12
:101D900000BF208850B14FF44050FA49088000211C
:101DA000084600F023FF3020F74908802088A188EA
:101DB000884204DB0320F5490968087218E020888E
:101DC000002804DD0520F1490968087210E0208828
:101DD00070B90620ED49096808720021EC480068D6
:101DE00080B2801CEB4A42F810103020E64908808F
:101DF000BDE8F0812DE9F047E448006800F11005E6
:101E00002E88E2480068077AD6B9042F18D1E24834
:101E1000007801280FD10021DD48006880B2801CC5
:101E2000DC4A42F810103020D749088000BF00205B
:101E3000D949087003E007271020D349088027E01C
:101E4000AC88A64201D8042000E002200746B44234
:101E500000D93446A0B2A96888478046002000F027
:101E6000A9FE8146A2B24946404600F08DFCA1B2CF
:101E7000002000F0BBFE2888001B288068882044D2
:101E800068803020C04908800002BE49088000BF39
:101E9000BE4909680F72BDE8F08770B50226BB48DD
:101EA00000684478B9480068007810F07F0F44D18A
:101EB000092C03D1FFF75DFD06465FE0052C14D128
:101EC000B2480068C0787F280BDCB0480068807892
:101ED00038B9AE480068808818B9AC480068807A84
:101EE00008B1082565E0002648E0032C0ED1A7487C
:101EF0000068C078012807D1A4480068808818B914
:101F0000FFF7F7FE064639E0022637E0012C35D10F
:101F10009E480068C07801280DD19C4800688088E0
:101F200048B99A480068407A10F0200F03D0FFF7B4
:101F3000F2FD064622E0022620E094480068007880
:101F400000F07F00012805D10B2C17D1FFF740FDD1
:101F5000064613E08D480068007800F07F000228F4
:101F60000BD1012C03D1FFF7D6FD064606E0032C6A
:101F700004D1FFF76AFE064600E002264EB1E0B249
:101F8000864A1268516988470646032E01D1092501
:101F90000FE00EB108250CE0062500217C48006802
:101FA00080B2801C7B4A42F81010302076490880AD
:101FB00000BF764909680D7270BD2DE9F84F73486E
:101FC000006845780027BA46062D1AD16F48006888
:101FD000007810F07F0F13D16C49096888780128C8
:101FE00003D16E490968CF690AE0022803D16B4921
:101FF00009680F6A04E0032802D1684909684F6A3A
:1020000097E0002D65D1614800684088002860D1C4
:102010005E480068C08802285BD15C48006800798F
:10202000002856D159480068007810F07F0F06D17B
:1020300056480068808810B9AFF20B6779E05348C2
:102040000068007800F07F00012811D14F4909682D
:102050004879524909688A6900219047002868D167
:102060004A480068807A002863D0AFF23B6760E09E
:1020700046480068007800F07F00022859D14348A4
:102080000068407900F00F0640480068407900F091
:1020900070093E480068407910F0800F06D03C4837
:1020A000503850F8260000F0300805E03848503825
:1020B00050F8260000F4405839480078B04238D92A
:1020C000B9F1000F35D1B8F1000F32D0AFF29F67F0
:1020D0002FE0082D08D12D480068007810F07F0F00
:1020E00027D1AFF2937724E00A2D22D12748006848
:1020F000007800F07F0001281BD124480068807A16
:10210000B8B122480068408898B920480068007932
:1021100078B91E480068C08801280AD11B4909689F
:1021200048791E4909688A690021904708B9AFF2C9
:10213000817757B115480068A0F812A013480068CD
:1021400087610020B84700240FE0104A12685078D9
:10215000124A1268116988470446032C05D10920E8
:102160000A4909680872BDE8F88F08480068008AC3
:10217000A0F57F41FF3915D109200449096808728B
:10218000F1E7000050000020520000204000002035
:10219000505C0040006000403800002044000020F7
:1021A000C8000020022C03D09D480068008A20B996
:1021B00008209B4909680872D5E7994800680078AB
:1021C00010F0800F3CD096480068C088009094487A
:1021D0000068008A0099884204D9914900980968EA
:1021E000088223E08E480068008A8D490968C98802
:1021F00088421BDA8A480068008A8A49096891F88F
:102200002C10884203DA0020874908700EE08448C9
:102210000068008A8349096891F82C1090FBF1F25C
:1022200001FB120010B901207F4908707D48006849
:1022300090F82C107A4800688182FFF7DBFD06E0F9
:10224000032077490968087200037849088000BFB5
:1022500089E710B5764890F82C10002000F0E8FCD3
:102260006F480068007A082805D140026F4908804D
:102270001020704908806A480068007A092801D156
:10228000012010BD0020FCE738B501246A48006831
:1022900080B2001D694931F8100080B201EB4000A6
:1022A00000905F480068007A092832D000980078D2
:1022B0005B49096808700098401C009000980078FD
:1022C0005749096848700098401C0090009800EB3E
:1022D00044000090009931F8020B009100F046FE96
:1022E0004F4909684880009800EB4400009000992D
:1022F00031F8020B009100F039FE494909688880E5
:10230000009800EB44000090009800884449096858
:10231000C880012042490968087241480068C088A5
:1023200010B9FFF7BAFD01E0FFF747FEFFF791FF95
:1023300038BD30B50146424B1A78002012E0C3B2D6
:102340003D4C503C54F8233048F68F74234048F2FB
:1023500080042343C4B22343C4B2374D503D45F8F3
:102360002430401C9042EAD341F08003324C241FB9
:10237000236030BD10B52A480068047A022C01D0D1
:10238000042C05D1FFF736FD25480068047A1CE0CF
:10239000062C19D122480068407805280ED1204823
:1023A0000068007810F07F0F08D11D490968C878CF
:1023B000FFF7BFFF23490968086A80471949096880
:1023C00088688047082400E00824154909680C72D1
:1023D000FFF73FFF10BD10B511480068047A022CCA
:1023E00001D0042C01D1082412E0032C01D0052CCB
:1023F00005D1FFF79DFC0A480068047A08E0072C25
:1024000005D108490968C8688047082400E0082405
:10241000034909680C72FFF71CFF10BD70470000EC
:102420004000002044000020380000205000002020
:10243000CC00002052000020505C004000600040B2
:10244000C80000204C00002010B50848084908606A
:1024500002200968087207480749086007480849C8
:102460000860054909680868804710BD28020020F7
:1024700040000020CC00002044000020FC00002090
:102480004C00002008B50020009015E1B7480088F6
:1024900000F00F00B64908700846007800287DD18A
:1024A000B4480068B44908800846008800F030004D
:1024B000B2490880B048008800F44050AE49088016
:1024C000AC4909684BF6BF7201EA020080F4005083
:1024D00080F0200040F4004141F08001A54A1160E5
:1024E000A248008810F0100F32D11046006848F65C
:1024F0000F71084011460860FFF73CFF9D490968CD
:102500004BF6BF7201EA02009B49098811F4805F13
:1025100001D080F480509849098811F4005F01D0FF
:1025200080F400509549098811F0100F01D080F017
:1025300010009249098811F0200F01D080F020008E
:1025400081B241F4004141F080018A4A116008BD26
:102550008848006880B20090BDF8000010F4006F59
:1025600036D084480068C0F30E0048F68F710840EA
:1025700080490860FFF788FE7E4909684BF6BF7204
:1025800001EA02007C49098811F4805F01D080F4DF
:1025900080507949098811F4005F00E052E001D0D1
:1025A00080F400507549098811F0100F01D080F0B7
:1025B00010007249098811F0200F01D080F020002E
:1025C00081B241F4004141F080016A4A1160BEE7E6
:1025D000BDF8000010F4004F6ED066480068C0F3EC
:1025E0000E0048F68F71084062490860FFF7F3FE5D
:1025F000604909684BF6BF7201EA02005E4909882A
:1026000011F4805F01D080F480505B49098811F497
:10261000005F01D080F400505849098811F0100F74
:1026200001D080F010005549098811F0200F01D029
:1026300080F0200081B241F4004141F080014D4A18
:10264000116084E74A4800784A4951F8200080B276
:102650000090BDF8000010F4004F14D044480078FA
:1026600051F82000C0F30E0048F68F710840404931
:102670000978404A42F821003D490978491E404AFC
:1026800052F821008047BDF8000010F0800F13D0F1
:1026900037480078374951F8200048F60F71084054
:1026A00033490978334A42F8210031490978491EF3
:1026B000344A52F8210080472E484430006880B2E6
:1026C0002A49088010F4004F7FF4E0AE00BF3EE7D7
:1026D00010B5002440E047F6FF70264944310860F9
:1026E0002248008800F00F00214908700846007851
:1026F000204951F8200084B214F4004F15D01C4832
:10270000007851F82000C0F30E0048F68F710840A1
:1027100017490978174A42F8210015490978491ED6
:10272000174A52F82100804716E014F0800F13D0AA
:102730000F4800780F4951F8200048F60F71084003
:102740000B4909780B4A42F8210009490978491ECA
:102750000C4A52F82100804706484430006880B295
:102760000249088010F4004FB5D110BDB800002018
:102770003C000020005C004050000020520000207F
:102780009C00002080000020F0B5144604F1010CEC
:102790004FEA6C07DFF848C00CEB41033D460AE006
:1027A0000678401C90F800C046EA0C2223F8022B61
:1027B0009B1C401C6D1E002DF2D1F0BDF0B5561CC7
:1027C0007510074E06EB41042B4605E034F8047BF8
:1027D00020F8017B401C5B1E002BF7D1F0BD0000F0
:1027E00000600040F94908607047F848006880B20E
:1027F0007047F649091D08607047F448001D0068DD
:1028000080B27047F1480830006880B27047EF49E5
:102810000C3108607047ED480C30006880B270479A
:102820004FF6F8710140E94A103211607047E748ED
:102830001030006880B27047E44A403A42F82010F5
:1028400070470146E148403850F8210080B2704797
:10285000DE4A403A52F8202048F68F131A400A43C5
:10286000DA4B403B43F8202070470146D7484038B8
:1028700050F8210000F4C060704710B5D34B403BC6
:1028800053F8203048F6BF7403EA040211F0100F29
:1028900001D082F0100211F0200F01D082F020024E
:1028A00042F4004343F08003C84C403C44F82030DD
:1028B00010BD10B5C54B403B53F820304BF68F741C
:1028C00003EA040211F4805F01D082F4805211F413
:1028D000005F01D082F4005242F4004343F08003D1
:1028E000BA4C403C44F8203010BD10B502460B46AF
:1028F0001046FFF7A6FF0446012B06D124F48050B2
:10290000B249403941F8220007E0022B05D124F0FA
:102910001000AE49403941F8220010BD0146AB48D5
:10292000403850F8210000F0300070470146A748B9
:10293000403850F8210000F440507047A34A403A14
:1029400052F8202048F6BF7302EA030181F010011B
:1029500081F0200141F4004242F080029B4B403B59
:1029600043F820207047994A403A52F820204BF60D
:102970008F7302EA030181F4805181F4005141F424
:10298000004242F08002914B403B43F820207047C8
:102990008E49403951F8201041F4807148F68F7209
:1029A000114048F280021143884A403A42F8201010
:1029B00070478649403951F8201048F68F6211401F
:1029C00048F280021143814A403A42F82010704791
:1029D0007E49403951F8201048F68F62114048F284
:1029E00080021143794A403A42F8201070477749F3
:1029F000403951F8201041F4807148F68F7211402F
:102A000048F280021143714A403A42F82010704760
:102A10006E49403951F8201041F4807148F68F72A8
:102A2000114048F280021143684A403A42F82010AF
:102A300070476649403951F8201048F68F621140BE
:102A400048F280021143614A403A42F82010704730
:102A500001465E48403850F8210000F03000102850
:102A600001D1012070470020FCE70146574840385B
:102A700050F8210000F44050B0F5805F01D10120F2
:102A800070470020FCE75149403951F82010C1F34C
:102A90000E0148F68F7211404C4A403A42F820101D
:102AA00070474A49403951F8201048F60F721140DA
:102AB000464A403A42F8201070474449403951F89C
:102AC000201048F68F7211404CF2800211433F4AA9
:102AD000403A42F8201070473C49403951F82010E4
:102AE00048F68F72114048F2C0021143374A403A0B
:102AF00042F8201070473549403951F8201011F440
:102B0000804F0DD03149403951F8201048F68F726E
:102B100011404CF2800211432C4A403A42F82010F6
:102B200070472A49403951F8201011F0400F0DD05C
:102B30002649403951F8201048F68F72114048F26A
:102B4000C0021143214A403A42F8201070471F4A00
:102B5000403A52F8202048F68F731A4048F280031A
:102B60001A430A43194B403B43F820207047014663
:102B70001648403850F8210000F00F00704710B59B
:102B80004A105300114A1032126892B202EBC0028E
:102B90000F4C44F8123010BD10B54A1053000B4AC8
:102BA0001032126892B202EBC002121D084C44F8B7
:102BB000123010BD014605481030006880B200EBAD
:102BC000C100034A32F8100080B27047405C0040F8
:102BD000006000400146E848006880B200EBC10098
:102BE000001DE64A32F8100080B27047E24A1268CF
:102BF00092B202EBC002921CE04B43F812107047F5
:102C000002463E290BDD481111F01F0F01D1431E72
:102C100098B24FF4004343EA8023136007E0481062
:102C200011F0010F01D0431C98B28302136070476A
:102C300010B50246D048006880B200EBC200801D8B
:102C4000CE4C04EB40033E290BDD481111F01F0F61
:102C500001D1441EA0B24FF4004444EA80241C6019
:102C600007E0481011F0010F01D0441CA0B284020B
:102C70001C6010BD0146C048006880B200EBC10076
:102C8000801CBE4A32F81000C0F3090070470146AC
:102C9000B948006880B200EBC100801DB74A32F825
:102CA0001000C0F30900704730B54B105C00B24B08
:102CB0001B689BB203EBC003B04D45F813405310A3
:102CC0005C00AD4B1B689BB203EBC0031B1D45F8BA
:102CD000134030BD10B54A105300A74A126892B293
:102CE00002EBC002A54C44F8123010BD10B54A10DA
:102CF0005300A14A126892B202EBC002121D9F4C0F
:102D000044F8123010BD01469B48006880B200EBC9
:102D1000C1009A4A32F8100080B2704701469648C6
:102D2000006880B200EBC100001D944A32F8100028
:102D300080B2704730B50B46012B1FD18E49096810
:102D400089B201EBC001891C8C4D05EB41043E2A80
:102D50000BDD511112F01F0F01D14D1EA9B24FF41E
:102D6000004545EA8125256007E0511012F0010F6A
:102D700001D04D1CA9B28D0225600AE0022B08D1BA
:102D80007D49096889B201EBC001891C7B4C44F87C
:102D90001120012B1FD17849096889B201EBC001CC
:102DA000891D764D05EB41043E2A0BDD511112F0D1
:102DB0001F0F01D14D1EA9B24FF4004545EA8125F0
:102DC000256007E0511012F0010F01D04D1CA9B28F
:102DD0008D0225600AE0022B08D16749096889B293
:102DE00001EBC001891D654C44F8112030BD30B5A0
:102DF000034601291FD16048006880B200EBC30080
:102E0000801C5E4D05EB40043E2A0BDD501112F094
:102E10001F0F01D1451EA8B24FF4004545EA802599
:102E2000256007E0501012F0010F01D0451CA8B238
:102E3000850225600AE0022908D14F48006880B267
:102E400000EBC300801C4D4C44F8102030BD30B561
:102E5000034601291FD14848006880B200EBC30037
:102E6000801D464D05EB40043E2A0BDD501112F04B
:102E70001F0F01D1451EA8B24FF4004545EA802539
:102E8000256007E0501012F0010F01D0451CA8B2D8
:102E9000850225600AE0022908D13748006880B21F
:102EA00000EBC300801D354C44F8102030BD0146B6
:102EB0003148006880B200EBC100801C2F4A32F814
:102EC0001000C0F30900704701462B48006880B22B
:102ED00000EBC100801D294A32F81000C0F3090040
:102EE000704701462448006880B200EBC100801D95
:102EF000224A32F8100010F47C4F01D001207047B4
:102F00001D48006880B200EBC100801C1B4A32F8EB
:102F100010008005800D01D00220F0E70020EEE7D0
:102F200001290ED1144A503A52F8202048F68F73E6
:102F30001A4048F2C0031A430F4B503B43F820207D
:102F40000FE002290DD10C4A503A52F8202048F6E1
:102F50008F731A404CF280031A43074B503B43F8DF
:102F600020207047024641EA022070470146CAB25B
:102F70000B1243EA02207047505C004000600040A2
:102F800000201D4908604FF43F401C490880084656
:102F900000881949091F0860002070472DE9F04199
:102FA00004460E46154604F07F00FFF703FE074671
:102FB000AAB239463046FFF7E7FBA9B204F07F001A
:102FC000FFF714FE0020BDE8F0812DE9F041044632
:102FD0000E46002504F07F00FFF759FE054604F079
:102FE0007F00FFF7F7FD07462A4639463046FFF7D0
:102FF000E5FB2846BDE8F081445C00404A00002023
:1030000010B54FF48020FEF79AFC10BD10B500F00B
:1030100029FA10BD10B50120FEF702F90121C805FB
:10302000FEF7A7F910BD10B599A000F017FD032019
:103030009E49086010BD10B59D4C9EA000F00EFD8D
:10304000A07A18B105209949086002E0012097494B
:10305000086010BD0EB54FF48020FEF770FC4FF4F1
:103060008020009008208DF8050001208DF80600D2
:103070006846FEF7EDFB14208DF8080001208DF85E
:10308000090000208DF80A0001208DF80B0002A82D
:10309000FDF7E3FD2A208DF8080000208DF80900D7
:1030A00002A8FDF7DAFD0EBD10B504461CB187A0DD
:1030B00000F0D4FC02E08BA000F0D0FC10BD10B5F5
:1030C000044601210420FEF747F93CB18B48006813
:1030D00080B220F002008949086014E08748006847
:1030E00080B240F00200854908608548006820F4FD
:1030F0007F20834908600846006840F44C3008602F
:1031000000208049086010BD30B50B46002100BF8B
:1031100016E00A24B4EB107F05D9302404EB1074B8
:1031200003F8114005E0412404EB10740A3C03F855
:103130001140000100254C00641C1D554C1CE1B2DF
:103140009142E6DB30BD70B56F480468001D05682C
:10315000001D0668344454B108226C492046FFF72C
:10316000D3FF0422694910312846FFF7CDFF70BD17
:1031700010B500216648A0F80214A0F80014002041
:10318000644908806448017964A000F067FC6248E3
:10319000417968A000F062FC5F4881796CA000F082
:1031A0005DFC5D48016871A000F058FC012010BD75
:1031B00030B503460A46002133E0585C554C24885C
:1031C00014F4004F2BD1534C248814F4804F0CD0AE
:1031D0000A2803D000244F4D2C8020E04D4C248839
:1031E00044F400444B4D2C8019E00D2806D1494C85
:1031F000248844F48044474D2C8010E0454C2488BA
:10320000C4F30D045F4D2855424C2488641C414D85
:103210002C802C462488C72C01DD00242C804C1CDB
:10322000E1B29142C9DB30BD3949B1F80014384AE6
:1032300050541146B1F80014491C8AB23449A1F81F
:103240000024B1F80014B1F5806F03D10022304999
:10325000A1F8002470470FB438B505A800904A487B
:10326000009A049900F0E8FB00200090464800F026
:1032700003FD85B2002405E04349085DFFF7D4FF54
:10328000601C84B2AC42F7DB38BC5DF814FB000074
:1032900075736220656E746572206C6F7720706F35
:1032A000776572206D6F64650D0A00005001002083
:1032B000280200206C65617665206C6F7720706F46
:1032C000776572206D6F64650D0A0000757362206A
:1032D00070756C6C20757020656E61626C650D0A8E
:1032E000000000007573622070756C6C2075702092
:1032F00064697361626C650D0A000000405C004007
:1033000004080140B0012142E8F7FF1F58000020E7
:103310004402002054000020C00000206C696E654B
:10332000636F64696E672E666F726D61743A2564AF
:103330000D0A00006C696E65636F64696E672E70BC
:103340006172697479747970653A25640D0A0000B8
:103350006C696E65636F64696E672E646174617415
:103360007970653A25640D0A000000006C696E658D
:10337000636F64696E672E626974726174653A2561
:10338000640D0A00100700204806002070B531487F
:10339000B0F80214B0F80004814200D170BD2D488D
:1033A000B0F80214B0F80004814207DA2948B0F8F6
:1033B0000014B0F80204081A84B205E02548B0F8F9
:1033C0000204C0F5806084B2402C00DD4024214816
:1033D000B0F80254B0F80204204481B21D48A0F8AD
:1033E0000214B0F80204B0F5806F03DB0021194825
:1033F000A0F80214174948192246C021FFF7C4F962
:1034000021460120FFF7F2FB0120FFF797FA00BFEA
:10341000C4E710B510490320FFF7D7FD84B2E1B22D
:103420000D48FFF7C5FE0320FFF79DFA10BD10B54C
:103430000A48006805280CD1094801680068401C4A
:10344000074A1060052904D1002011460860FFF7E3
:103450009DFF10BD44020020D8070020500100202D
:103460007000002010B588B00024664800686649E6
:1034700008800846008800F4007064490988084202
:103480000AD04FF6FF505F49086061480078401C41
:103490005F490870FFF7CBFF5B48008800F40040ED
:1034A0005A490988084201D0FEF7ECFF56480088C7
:1034B00000F4806055490988084206D04FF6FF3075
:1034C000504908605349486880474F48008800F4D5
:1034D00000504E490988084203D04DF6FF70494913
:1034E00008604948008800F480504849098808422B
:1034F00006D04EF6FF7043490860002000F02EFA17
:103500004148008800F400604049098808420CD016
:103510004148007810B100F0CEF902E0022000F03E
:103520001DFA4FF2FF70374908603748008800F4F1
:10353000807036490988084261D04FF6FF603149F2
:103540000860081D006810F4004F52D0334800682E
:10355000401C324908600846006803284CD92948B5
:10356000001F006810F0080F46D12648001F0068B1
:1035700080B22B490860002407E02248443850F804
:10358000240080B24DF82400641C082CF5D3244894
:10359000006840F00100224908600846006880B2D7
:1035A0001849091F08601E48006820F001001C49E6
:1035B00008600846006880B21249091F086000BF11
:1035C0001048006810F4806FFAD04FF6FF300D49B4
:1035D0000860002407E05DF8240080B209494439FE
:1035E00041F82400641C082CF5D300200B49086026
:1035F00002E0002009490860072000F0AFF908B098
:1036000010BD0000445C0040B80000204A000020CB
:1036100074000020CC00002054010020780000201D
:103620007C00002010B5FFF78EFD0020834909685B
:10363000887200F017F9FFF7A3FC002080490860AA
:1036400010BD10B500207D49096888727D48C07999
:103650007A4909684872002078490968C872FFF7FA
:10366000DFF84FF400710020FFF7F2F8102100207E
:10367000FFF703F940210020FFF78EFA8021002098
:10368000FFF77DFA0020FFF7A3F96F4890F82C10A0
:103690000020FFF7CDFA0020FFF765F90021012097
:1036A000FFF7D6F8C0210120FFF769FA2021012099
:1036B000FFF7E3F800210120FFF7FBF84FF4C061AA
:1036C0000220FFF7C5F84FF480710220FFF757FA88
:1036D00000210220FFF7EDF820210220FFF7CDF8AE
:1036E00000210320FFF7B4F84FF488710320FFF79F
:1036F00053FA40210320FFF79BFA4FF44051032077
:10370000FFF7D7F800210320FFF7B7F80020FEF7F6
:1037100010FE01204A49086010BD4C48817A11B161
:103720000521474A116070470420454908607047E9
:1037300010B547480078202804D1FFF719FD002074
:103740004349087010BD7047014629B908203B4A1B
:1037500012681082002070473E48FCE7014629B9F4
:103760000820364A12681082002070473948FCE76A
:1037700070B504460025212C09D130480068007836
:1037800000F07F00212810D1AFF22F050DE0202C92
:103790000BD12A480068007800F07F00212801D171
:1037A000AFF25B0520202A4908700DB9022070BDD8
:1037B000224800688561002120480068418200207D
:1037C000A8470020F3E701461C480068007800F095
:1037D0007F00212807D1022901D10020704722292A
:1037E00001D10020FAE70220F8E710B504461A4993
:1037F0002046FEF78DFA10BD10B504461749204645
:10380000FEF786FA10BD70B505460C480068C4780E
:10381000042C01DD002070BD114800EBC4012846D6
:10382000FEF776FAF7E70246002901DD022070472D
:10383000012A01DD0220FAE70020F8E7400000201D
:1038400050010020CE500008CC00002028020020AB
:10385000BC000020C0000020200100202801002022
:103860003001002010B50120FFF71EFC01246C4838
:10387000046000206B490880084600886849086099
:103880000020091D08604FF4E05066490880084692
:10389000008863490860002010BD10B50120604910
:1038A00008600020091D0860FFF7FEFB03205C494B
:1038B0000860002010BD38B5002500200090584851
:1038C000006884B200BF08E05548403850F8250031
:1038D00080B2554941F825006D1C082DF4D344F4FD
:1038E00080644F48046044F00104046024F0010443
:1038F000046000BF4A48001D006810F4806FF9D0D2
:103900004FF6FF304649091D0860002508E046488B
:1039100050F8250080B24249403941F825006D1C1D
:10392000082DF4D344F008043D480460006884B2D4
:1039300044F004043A480460FFF775FB38BD10B545
:103940003748006884B224F0040435480460FFF767
:1039500072FB4FF43F403249086010BD70B5054618
:10396000072D01D0314805703048007808284ED224
:10397000DFE800F004111A202B384E4F2C48006865
:1039800028B9FFF7DCFF06202849087002E005206F
:103990002649087041E0FFF7D2FF04202349087050
:1039A00001202349086038E00220204948700320A4
:1039B000087032E01D484078401E1C494870084697
:1039C000407808B90420087027E01548006884B2E0
:1039D00044F01004124804600520144908700A20BD
:1039E00048701AE011484078401E10494870084657
:1039F000407858B90A48006884B224F01004084896
:103A000004600620087000200949086005E000BF36
:103A100000BF06200549087000BF00BF70BD000050
:103A2000405C00404A000020180800205C01002093
:103A300058010020704700001CB50C46064B7B4423
:103A400069460090204600F014FA044600206946BA
:103A500000F022FA20461CBD570400000FB40449B0
:103A600010B503AA029800F01DFA10BC5DF814FB13
:103A7000200000202DE9F041064600241068752939
:103A8000314616A511D000F043F9002803DAC0F141
:103A9000000013A507E031688A0701D511A502E0EF
:103AA000490704D510A5012401E000F03AF90021EE
:103AB0000A2306F1240707E0B0FBF3F203FB120030
:103AC000303078541046491C0028F5D123462A4648
:103AD0003046BDE8F04100F056B90000000000009B
:103AE0002D0000002B000000200000002DE9F05FF9
:103AF000894604464FF0000ADFF878B1FB44C0F86D
:103B000020A02046E1688847002875D0252806D0E7
:103B1000D4E901219047206A401C2062F1E7002689
:103B20005F462046E16888472028054608DB312D9E
:103B300006D207EB050010F8200C08B10643F0E7A9
:103B4000B00701D526F00406C4F81CA00027C4F86D
:103B500018A02A2D09D0284601F07BFA38B304EBCF
:103B60008708303DC8F8185019E059F8041B204662
:103B700004EB87029161E1688847012F054618D15F
:103B8000E069002820DA26F020061DE0D8F81800A9
:103B900000EB800005EB40003038C8F818002046E4
:103BA000E1688847054601F054FA0028EED1012F5C
:103BB0000AD02E2D08D12046E16888477F1C054693
:103BC000022F46F02006C4DBA069002803DA404239
:103BD00046F00106A061F00701D026F010066C2D1A
:103BE0000BD0682D09D04C2D39D06A2D35D0742DCD
:103BF00035D07A2D33D016E038E0E1682F462046E4
:103C00008847B842054609D16C2F26D04FF4806012
:103C1000E168064320468847054604E06C2F1AD029
:103C20004FF4807006430DB3A5F14100192802D866
:103C3000203546F400664A462946204626604E4610
:103C4000FCF7D0FA80B101280BD0F61D26F0070052
:103C500000F1080955E74020E4E78020D8E700207C
:103C6000D6E706F104094CE7284651E7206ABDE88B
:103C7000F09F00006D16000010B5431C02E010F824
:103C8000011B71B18107FAD14FF0013202C88C1AC1
:103C90008C4314EAC211F9D0C01A0A0603D0C01E20
:103CA00010BDC01A10BD0A0401D0801E10BD09024B
:103CB000FCD0401E10BD704770477047704770B50C
:103CC000044685690068C10601D5302600E020263B
:103CD000C00708D070BDD4E9012130469047206A62
:103CE00000F1010020626D1EF5D570BD70B504466F
:103CF00085690078C00708D170BDD4E90121202072
:103D00009047206A00F1010020626D1EF5D570BD5C
:103D100009684A0501D540B27047C905FCD500B213
:103D2000704709684A0501D5C0B27047C905FCD57E
:103D300080B2704770B50C460546012A05D0287838
:103D4000800600D5EA69002302E0012305E05B1C40
:103D5000934202D2E05C0028F9D1A869E618C01AA3
:103D6000A861286A184428622846FFF7A8FF04E0E3
:103D7000D5E9012114F8010B9047B442F8D3284645
:103D8000FFF7B4FF70BD2DE9F0470D469946924606
:103D9000044600F124080168880604D5E06921F092
:103DA0001001216000E00120A84202DDA0EB050720
:103DB00000E00027A16907EB050202EB0900A1EB77
:103DC0000000A0612078C00602D42046FFF777FFEC
:103DD000002608E0D4E901211AF806009047206A7D
:103DE000401C761C20624E45F4DB2078C0060AD5C4
:103DF0002046FFF764FF06E0D4E901213020904718
:103E0000206A401C2062381EA7F10107F4DC07E09D
:103E1000D4E9012118F805009047206A401C20626F
:103E2000281EA5F10105F3DC2046FFF75FFF20788F
:103E3000000602D50220BDE8F0870120FBE71168EB
:103E40000268006A530501D508700BE0D30501D55F
:103E5000088007E0130603D5C217C1E9000201E09C
:103E6000520608600120704701694A1C0261087807
:103E7000704700B58FB0CDE90131002105910549AA
:103E80007944CDE9031011466846FFF72FFE0FB0C5
:103E900000BD0000E5FFFFFF0A6802F8010B0A60A1
:103EA00070470000074B70B50D467B44FFF7E1FFFC
:103EB0000446284600F0ADFB10B14FF0FF3070BD56
:103EC000204670BD29CCFFFF2DE9FF5F15468A46CD
:103ED0000446DFF8AC80F8440027D8E900103E46DD
:103EE000CDE9001011E03AF816106A4602A800F079
:103EF00094FB411C07D02178890603D5E269391863
:103F000091420ED8074406F101062078800602D5BA
:103F1000E069B84205DDAE42E5DB3AF8160000285C
:103F2000E1D1A069C01BA0612046FFF7C8FED8E917
:103F30000010CDE90010002016E03AF818106A468B
:103F400002A800F06AFB8146401C0BD000250DF151
:103F5000080B05E0D4E901211BF8050090476D1C12
:103F60004D45F7D308F10100B0428046E5DB206AF9
:103F7000384420622046FFF7B9FEBDE8FF9F0000ED
:103F8000A61200002DE9F0418046D21D22F0070262
:103F90000025D2E90002F52914A612D0002A06DA7B
:103FA0000023D0EB030063EB020211A608E0D8F86F
:103FB00000108B0701D50FA602E0490701D50EA618
:103FC00001251146002408F1240704E000F0A0F8C0
:103FD00030323A55641C50EA0102F7D12B46324682
:103FE00021464046BDE8F041FFF7CDBE000000008D
:103FF0002D0000002B0000002000000030B4002144
:1040000000F124040CE002F0070505F130054FEA49
:10401000D20242EA4372655401F101014FEAD3032F
:1040200052EA0305EFD10468002310A2250708D542
:1040300004F020040C4304D0C46901230CA2641EC4
:10404000C46130BCFFF79FBE10B50446214610681E
:10405000FFF767FE02462046BDE810400023CDE78B
:10406000D21D22F00701D1E90023C7E700000000BC
:1040700030000000F0B40D460188090502D5234C3C
:104080007C4402E0214C7C440E34002100F12406E3
:104090000BE002F00F074FEA1212E75D42EA0372EB
:1040A0004FEA1313775401F1010152EA0307F0D1EB
:1040B00002780023120704D5702D06D009B11134FF
:1040C00002232246F0BCFFF75EBE10340123F8E75E
:1040D00070B504460D4621461068FFF722FE0246E1
:1040E00029462046BDE870400023C3E7D21D22F0D8
:1040F0000703D3E90023BDE70368126843F02003F8
:1041000003600823C3610023B4E70000041100002A
:1041100030B5B0F10A024FEA900E71F100034EEA99
:10412000817EB0EB0E0061EB91014FEA101E4EEA6A
:10413000017E10EB0E0041EB11114FEA102E4EEAFA
:10414000016E10EB0E0041EB11214FEA104E4EEACA
:10415000014E10EB0E0041EB1141401841F10001FE
:104160004FEAD00040EA41704FEAD10110EB8005E0
:104170004FEA810444EA907444EB01046D1944EB66
:104180000404521BA3414FF0000348BF0A3200D57C
:1041900030BD401C41F1000130BD70472DE9FF4F9B
:1041A0000C461E464FF0FF378BB0D2E90001DDF818
:1041B00060800A908A46C1F30A5505B93D46002140
:1041C00008464FF00000BAF1000F00F4400005DA95
:1041D00000EB80004FF4400101EA50004FEA905993
:1041E000B9F1010F00DDB9460A9850EA4A000ED035
:1041F00044F61050A5F2FF3545432F14B8F1000FD7
:104200001ED07542291E1EDDC9F100021CE0B8F166
:10421000010F4FF0000001D0302103E0F24305E030
:104220002154401CB042FBDB3046002200212154C7
:104230000B99C1F80880C1E900200FB0BDE8F08FEC
:10424000BD1B6D1CDEE74A4600DA694206A800F095
:1042500075FA06AB07CB03AB07C350460A9900F0CB
:1042600029FB8DE80700A0F500501F380090039847
:10427000002D09DD42F21F014A46084403A90390BC
:10428000684600F088FD08E0A0F500504A461F3857
:1042900003A90390684600F092FD8DE80700000432
:1042A000000C03D04FF0FF30410800E01046B8F199
:1042B000000F03D00022009215461FE0751E06D4A1
:1042C000FFF726FF02F1300262556D1EF8D5B346A6
:1042D0000122084302D000227F1C04E0207830280D
:1042E00001D100227F1E002A099787D01DE0112DE1
:1042F00007DAFFF70DFF303262556D1C50EA0102FC
:10430000F5D108430FD10021681E05E0235C625CF3
:104310006354491C2254401E8142F7DBAB46A81B64
:10432000401E099001E0009848B1002004F80B00FD
:104330000B98099AC0F80880C0E9002B7DE7112688
:104340004FF000085AE72DE9F04F88460446D21D89
:1043500022F0070191B0D1E90001CDE90A0100F096
:1043600064FE02460B98C00F01D02D2007E02068A4
:10437000810701D52B2002E0202101EAC000032A99
:10438000099001D0072A05DB03464146204600F08C
:1043900095F90FE12078800601D5E06900E006205C
:1043A000B8F1650F814606D0B8F1660F18D0B8F1A4
:1043B000670F72D132E00020B9F1110F009001DBDC
:1043C000112301E009F101030AAA01A90CA8FFF7D2
:1043D000E5FEDDE90C70002609F10105834648E0A1
:1043E00001204B4600904FF000470AAA01A90CA8F3
:1043F000FFF7D4FEDDE90DB00C995D46002618B933
:1044000009F1010001EB0005B9EB050003D4C0F18F
:10441000FF3609F10105A5EB09002BE0B9F1010F09
:1044200001DA4FF001090020B9F1110F0090484660
:1044300001DD112300E003460AAA01A90CA8FFF739
:10444000ADFEDDE90C704D4600268346207800075E
:104450000AD4AB4500DA5D4601A8012D04DD4119FF
:1044600011F8011C302907D04F4502DA17F1040F6B
:1044700004DA0120824610E06D1EEEE7002F02DC18
:10448000ED1B3E4403E0781CA84200DD0546A7EB87
:10449000060000F1010A4FF000472078000703D41E
:1044A000AA4501DB4FF0FF3A0021B7F1004F0DF1B3
:1044B00043088DF8431023D002202B23002F01DA6C
:1044C0007F422D234FF00A0C011EA0F1010000DCF9
:1044D0004FB197FBFCF10CFB11720F4602F1300259
:1044E00008F8012DF0E7A8F1010003702188090503
:1044F00001D5452100E06521A0F1010800F8011C6B
:1045000009980FA9A1EB080707F1070700B10120DF
:1045100000EB050101EBEA70A1693844A1EB000052
:10452000A0F10100A0612078C00602D42046FFF768
:10453000C6FB099830B1D4E901219047206A00F107
:10454000010020622078C00620D52046FFF7B7FB87
:104550001CE0002E04DBB34502DD01A8805D00E015
:104560003020D4E901219047206A761C401CBAF122
:10457000010A20620AD100F09DF8C0680168405C21
:10458000D4E901219047206A401C2062281EA5F131
:104590000105DEDC07E0D4E9012118F8010B9047A2
:1045A000206A401C2062381EA7F10107F3DC204678
:1045B000FFF79CFB022011B040E610B5436913B130
:1045C000AFF3008001E0FFF7B5FB012010BD1278CA
:1045D00000F124010A7000224A700122EDE71168FF
:1045E0004FF0FF32E9E710B5436913B1AFF3008034
:1045F00001E0FFF769FC012010BD128800F12401E1
:1046000082840022C2840122EDE711684FF0FF325C
:10461000E9E7007B00F08000704770B516460C4655
:10462000054600F03FF8036893F80101012806D021
:10463000FF2C0FD8185D68B101202C7070BDD3F825
:1046400007013246214603442846BDE8704003F284
:10465000071318474FF0FF3070BD754600F0E6F8BD
:10466000AE4605006946534620F00700854618B05F
:1046700020B5FCF7DBFABDE820404FF000064FF014
:1046800000074FF000084FF0000B21F00701AC4687
:10469000ACE8C009ACE8C009ACE8C009ACE8C009A6
:1046A0008D46704710B500F005F8001D10BD00BF25
:1046B000DD09000000487047580800202DE9F0414E
:1046C0001F46044603260168072A01F4006004DB44
:1046D00008B116A505E016A503E008B115A500E090
:1046E00015A521F010002060A069C01EA0610FB1C7
:1046F000401EA0612046FFF7E2FA4FB1D4E9012144
:1047000038469047206A401C2062C01C206206E0A8
:10471000206AFAE7D4E9012115F8010B9047761ECB
:10472000F8D22046FFF7E2FABDE8F0814E414E0094
:104730006E616E00494E4600696E66002DE9F047D5
:10474000814616468AB035487844D0E9002380680F
:104750000092CDE90130314878440C38D0E9022389
:10476000006903924FF03702CDE9043041F69B30E7
:10477000014491FBF2F0A0F1800502FB10141B3CF8
:1047800002D56442012000E00020DFF890A08046BE
:104790000027FA44AAF1C60A0DE0E00709D0324624
:1047A000684607EB47010AEB810100F008FB8DE842
:1047B000070064107F1C002CEFD1184F7F44B43FDA
:1047C00017E0E80713D007EB04100DF1180A90E882
:1047D0000E00AAE80E00C068F04201D198190890B6
:1047E000324606A903A800F0EAFA03AB07C36D102E
:1047F000641C002DE5D132466946B8F1000F03A8CC
:1048000002D000F0C8FA01E000F0D9FAC9E90001CD
:10481000C9F808200AB0BDE8F0870000E00A0000EF
:104820000446AFF300802046FBF73FFD0048704789
:10483000380800204FF0013C50F8042B51F8043B9D
:104840009A4221D1A2EB0C03934313EACC1317D164
:1048500050F8042B51F8043B9A4215D1A2EB0C03FB
:10486000934313EACC130BD150F8042B51F8043BBB
:104870009A4209D1A2EB0C03934313EACC13DBD089
:104880004FF00000704700BFD01A01BAB1FA81F1B1
:1048900001F0180122FA01F0CB40C1F12001DBB296
:1048A000C0B2C01A2CFA01F3D11A914311EAC31114
:1048B000E6D170475FEA400C08BF91F0000F4FEA65
:1048C0008C234FEAC12243EA51514FEA1C5018BFD2
:1048D00000F5F0404FEA300018BF41F000415FEAB8
:1048E0006C5C00F02980BCF1FF3F08BF40F08040C5
:1048F0007047130C06BF12044FF0100C4FF0000C61
:10490000130E04BF12020CF1080C130F04BF1201A6
:104910000CF1040C930F04BF92000CF1020CD30FA6
:1049200004BF52000CF1010C11464FF00002A0F13F
:104930001F00A0EB0C00704711F0004F08BF70473C
:1049400031F000413FF4D5AF0B0C06BF09044FF026
:10495000100C4FF0000C0B0E04BF09020CF1080CF8
:104960000B0F04BF09010CF1040C8B0F04BF89006D
:104970000CF1020CCB0F04BF49000CF1010CCCF17F
:104980002003A0EB0C0022FA03F302FA0CF241EA36
:10499000030100F10100704720F07F4C80EA030022
:1049A00023F07F47ACEB070303F57C5300F0004096
:1049B00003F1FF032DE980494FEA154B09B44FEA93
:1049C000144325EA0B4E24EA03480FF2042606EBB3
:1049D000132749083E785FEA320203FB0667C7F5F2
:1049E000000707FB06F64FEA54374FEAD64606F1B2
:1049F000020607FB066CCCF1005C4FEA1C472CEA70
:104A0000074C07FB06F40CFB06F504EB15464FEAD2
:104A1000961634BF00204FF000404FEAD13706FB16
:104A200007FC4FEA1C4C0CFB0BF7D21B03FB0CF7EB
:104A300061EB07010CFB0EF7B0EB074072EB17427E
:104A40000CFB08F734BFA2EB0742B2EB074261EB65
:104A500017414FEA0C444FEA910706FB07FC4FEA67
:104A60001C4C0CFB0BF7B0EBC74072EB573203FB4F
:104A70000CF734BFA2EBC742B2EBC74261EB573130
:104A80000CFB0EF7B0EBC70072EB57720CFB08F78C
:104A900034BFA2EBC702B2EBC70261EB5771039FB1
:104AA0004FEA816141EA921104EBCC044FEAD1371D
:104AB0004FEA826206FB07FC42EA90124FEA8060EE
:104AC0004FEA1C4C0CFB0BF7D21B03FB0CF761EB02
:104AD00007010CFB0EF7B0EB074072EB17420CFB23
:104AE00008F734BFA2EB0742B2EB074261EB174174
:104AF0004FEA8C554FEA910704EB9C2406FB07FC18
:104B00004FEA1C4C0CFB0BF7B0EBC74072EB573273
:104B100003FB0CF734BFA2EBC742B2EBC74261EB19
:104B200057310CFB0EF7B0EBC70072EB57720CFB62
:104B300008F734BFA2EBC702B2EBC70261EB5771B3
:104B400015EB4C254FEA816141EA92114FEA8262EE
:104B50004FEAD13742EA901206FB07FC44F1000409
:104B60004FEA80604FEA1C4C0CFB0BF7D21B03FB97
:104B70000CF761EB07010CFB0EF7B0EB074072EB93
:104B800017420CFB08F734BFA2EB0742B2EB074217
:104B900061EB174115EB1C154FEA813141EA924157
:104BA0004FEA823242EA90424FEA80304FEA0C7676
:104BB00044F1000448EA03434EEA0B484FF0000E6C
:104BC000B2EB080C71EB030724BF624639464EEB8B
:104BD0000E0E4FF0000B0018524149414BEB0B0BEE
:104BE000B2EB080C71EB03077BF1000B24BF6246AC
:104BF00039464EEB0E0E4FF0000B00185241494162
:104C00004BEB0B0BB2EB080C71EB03077BF1000BCA
:104C100024BF624639464EEB0E0E51EA020718BF1A
:104C200046F0010616EB0E7655F1000254F1000134
:104C300003D5BDE88901BDE80088BDE88901BDE86C
:104C40000048B619524141EB0101A3F1010370473D
:104C500080807F7E7D7C7B7A7978777676757473B9
:104C6000727171706F6E6E6D6C6C6B6A6A69686878
:104C7000676666656464636362616160605F5F5E0E
:104C80005E5D5D5C5C5B5B5A5A5959585857575684
:104C900056555555545453535252525151505050E9
:104CA0004F4F4F4E4E4D4D4D4C4C4C4B4B4B4A4A3B
:104CB0004A4949494848484747474746464645457F
:104CC00045444444444343434342424242414141B8
:104CD000002B26D4770021D01CB54FEA370703B448
:104CE0004FF010004FF010014FF000000FBCBDE876
:104CF00010400BF1010BBBF1010F08BF5FEA170772
:104D000022BF12F1010211F101014FF0004143F104
:104D1000000300F0004043EA00007047F9D3570851
:104D2000DAE746EA064613F1400F4FEA16461FDD62
:104D300013F1200FDFBF16430A46002120335B42E8
:104D4000C8D0C3F1200746EA064602FA07F74FEA41
:104D5000164646EA0706C3F1200722FA03F201FAD3
:104D600007F721FA03F14FF0000342EA0702B1E727
:104D700046EA020646EA06464FEA164646EA0106B3
:104D8000BCBF46EA0646360C4FF000034FF0000267
:104D90004FF000019EE72DE9C048934630B491E8FA
:104DA000380007C831EA400C48BF34EA430C03D549
:104DB000FFF7F2FDFFF78CFFF0BCBDE800882DE99E
:104DC000C048934630B491E8380007C810F0804FCF
:104DD00008BF13F0804F03D100F005F8FFF778FF0C
:104DE000F0BCBDE8008820F07F4780EA030023F094
:104DF0007F4C07EB0C03A3F57C5300F00040A3F1BC
:104E0000FE0392F0000F00F0B38095F0000F00F069
:104E100077802DE901494FEA11404FEA144621EA13
:104E2000004800FB06FC24EA064708FB06F607FBE1
:104E300008F800FB07F718EB06484CEB164C4FEA56
:104E4000124B18EB07484FEA15464CEB174022EA85
:104E50000B4E0BFB06FC25EA06470EFB06F607FB8E
:104E60000EFE0BFB07F71EEB064E4CEB164C4FF0FD
:104E700000061EEB074E4CEB174B18EB0B0840F1EE
:104E8000000018EB0E0B58EB000840F100008F1AE1
:104E90004FF000013CBFC943661B14BFB5EB040CC7
:104EA00000213CBFC943F61B4FEA17444EEA8E0E61
:104EB00027EA04454FEA1C4704FB07622CEA074C2B
:104EC00005FB07F70CFB05F604FB0CFC16EB07468D
:104ED00042EB174216EB0C4642EB1C421BEB06065C
:104EE00058EB0202414146EA9E0601D5BDE8018920
:104EF000B619524141EB0101A3F10103BDE801895B
:104F00004FEA14454FEA114724EA054621EA074CC7
:104F100005FB07F406FB07F70CFB06F105FB0CFC91
:104F200011EB074144EB17444FEA124711EB0C41D8
:104F300044EB1C4422EA074C05FB07F206FB07F78B
:104F40000CFB06F605FB0CFC16EB074642EB174282
:104F500016EB0C4642EB1C456A1854F1000148BFA1
:104F60007047B619524141EB0101A3F101037047AB
:104F700095F0000F37D04FEA11424FEA144721EA6B
:104F8000024624EA074C02FB07F106FB07F70CFB7D
:104F900006F402FB0CFC14EB074441EB17414FEA0B
:104FA000154714EB0C4441EB1C4125EA074C02FB6E
:104FB00007F506FB07F70CFB06F602FB0CFC16EBED
:104FC000074645EB174516EB0C4645EB1C421219FC
:104FD00051F1000148BF7047B619524141EB010140
:104FE000A3F1010370474FEA14454FEA114724EA41
:104FF000054621EA074C05FB07F106FB07F70CFB0A
:1050000006F24FF0000605FB0CFC12EB074241EBE9
:10501000174112EB0C4251EB1C4148BF70479218EC
:1050200041EB0101A3F101037047490050EAC1209F
:1050300018BF04204A0D18BF40F0010040F2FF7273
:10504000B2EB515F08BF40F00200012808BF052005
:10505000704730380A2801D201207047002070477D
:1050600010B500290AD00878002807D005487844F0
:10507000FFF7E0FB002801D0002010BD0248784473
:1050800010BD0000F6010000EE01000010B500297F
:105090000AD00878002807D005487844FFF7CAFBF3
:1050A000002801D0002010BD0248784410BD000047
:1050B000E6010000DE010000FFF745B91201000221
:1050C000020000408304405700020102030109026C
:1050D0004300020100C03209040000010202010085
:1050E0000524001001052401000104240202052406
:1050F000060001070582030800FF09040100020AF7
:10510000000000070503024000000705810240007F
:1051100000040309042603530054004D0069006392
:105120000072006F0065006C00650063007400721F
:10513000006F006E00690063007300320353005477
:10514000004D0033003200200056006900720074E8
:1051500000750061006C00200043004F004D0020EE
:105160000050006F00720074002000200004000056
:105170000800000000000000020001000010000014
:105180000000000000000000303132333435363783
:10519000383941424344454640305800303132337B
:1051A000343536373839616263646566403078007B
:1051B00002400000000000A00000000005400000C8
:1051C000000000C8000000000C4000000000409CEF
:1051D00000000000194000000020BCBE00000000DC
:1051E00034400000BFC91B8E00000004B540000021
:1051F000504BCFD06607E2CF010000006C410000A9
:105200003E8251AADFEEA73401000000D94200001F
:10521000DCB5A0E23A301F97FFFFFFFFB445000066
:10522000FD25A0C8E9A3C14FFFFFFFFFFF3F00001E
:105230000000008000000000FF3F00000000008030
:1052400000000000905300080000002060010000F2
:105250006C0100082454000860010020380D000093
:10526000C80100081C00000043000000F8FFFFFF19
:105270000C0000000E0000000F0000002E000000D7
:105280001001000043000000F8FFFFFF0040404015
:105290004040404040404141414141404040404009
:1052A00040404040404040404040404040050202B5
:1052B0000202020202020202020202020220202074
:1052C00020202020202020020202020202029090D0
:1052D00090909090101010101010101010101010CE
:1052E0001010101010101010020202020202888822
:1052F000888888880808080808080808080808082E
:105300000808080808080808020202024000000015
:10531000000000000000000000000000000000008D
:10532000000000000000000000000000000000007D
:10533000000000000000000000000000000000006D
:10534000000000000000000000000000000000005D
:10535000000000000000000000000000000000004D
:10536000000000000000000000000000000000003D
:10537000000000000000000000000000000000002D
:10538000000000000000000000000000000000001D
:1053900011846CDC02000C110102030406070809E9
:1053A000010101291C6920051E02040608141A03C4
:1053B000531254124D1233021F32138D330C1C083A
:1053C0001D24040B10133414912AC2AC12081A04C1
:1053D000071325361B0843041331371B0847041AEB
:1053E00071041AC7041327381B08EB081AF9041AAA
:1053F000070C41324029481A1B140916781A291C37
:1054000013BC503308121ACE08324313115133081B
:10541000041A150832261A3B0829E4225673201A6A
:04542000299281004C
:0400000508000131BD
:00000001FF
